:020000040800F2
:100000002008002089010008F5010008F50100081A
:10001000F5010008F5010008F501000800000000E6
:10002000000000000000000000000000F5010008D2
:10003000F501000800000000F5010008F5010008C6
:10004000F5010008F5010008F5010008F5010008B8
:10005000F5010008F5010008F5010008F5010008A8
:10006000F5010008F5010008F5010008F501000898
:10007000F5010008F5010008F5010008F501000888
:10008000F5010008F5010008F5010008F501000878
:10009000F5010008F5010008F5010008F501000868
:1000A000F5010008F5010008F5010008F501000858
:1000B000F5010008F5010008F5010008F501000848
:1000C000F5010008F5010008F5010008F501000838
:1000D000F5010008F5010008F5010008F501000828
:1000E000F5010008F5010008F5010008F501000818
:1000F000F5010008F5010008F5010008F501000808
:10010000F5010008F5010008F5010008F5010008F7
:10011000F5010008F5010008F5010008F5010008E7
:10012000F5010008F5010008F5010008F5010008D7
:10013000F5010008F5010008F5010008F5010008C7
:10014000F5010008F5010008F5010008F5010008B7
:10015000F5010008F5010008F5010008F5010008A7
:10016000F5010008F5010008F5010008F501000897
:10017000F5010008F5010008F5010008F501000887
:10018000F5010008F501000880B582B000AF40F22B
:100190005073C0F600037B6040F20003C2F200031C
:1001A0003B600BE07B681A683B681A603B6803F1B0
:1001B00004033B607B6803F104037B603A6840F210
:1001C0001403C2F200039A42ECD3084808494FF0E6
:1001D00000028842B8BF40F8042BFFF6FAAF00F0E7
:1001E0000DF807F10807BD4680BD0000140000208F
:1001F0001C00002080B400AFFEE700BF80B500AF58
:1002000000F0E0F900F026F900F002F8FEE700BF88
:1002100080B500AF4FF004004FF0010100F036F858
:1002200040F21400C2F2000000F016F84FF4006033
:10023000C4F2020040F21401C2F2000100F050F8D2
:100240004FF40060C4F202004FF400514FF001027D
:1002500000F0E8F880BD00BF80B483B000AF7860E4
:100260007B684FF400521A607B684FF001021A71EC
:100270007B684FF000029A717B684FF000025A7160
:1002800007F10C07BD4680BC704700BF80B483B047
:1002900000AF78600B46FB70FB78002B0CD04FF45E
:1002A0006053C4F202034FF46052C4F20202116BB5
:1002B0007A680A431A630DE04FF46053C4F20203F4
:1002C0004FF46052C4F20202116B7A686FEA0202C4
:1002D0000A401A6307F10C07BD4680BC704700BF97
:1002E00080B487B000AF786039604FF000037B6165
:1002F0004FF000033B614FF00003FB604FF0000341
:100300007B6186E07B694FF0010202FA03F33B61F7
:100310003B681A683B691340FB60FA683B699A4284
:1003200073D17B681A687B694FEA43034FF003017E
:1003300001FA03F36FEA03031A407B681A607B68D3
:100340001A683B681B7919467B694FEA430301FA37
:1003500003F31A437B681A603B681B79012B03D0B7
:100360003B681B79022B34D17B689A687B694FEA22
:1003700043034FF0030101FA03F36FEA03031A404A
:100380007B689A607B689A683B685B7919467B69F1
:100390004FEA430301FA03F31A437B689A607B68D0
:1003A0005A687B699BB24FF0010101FA03F36FEACF
:1003B00003031A407B685A607B685A683B689B79E4
:1003C00019467B699BB201FA03F39BB21A437B681F
:1003D0005A607B68DA687B699BB24FEA43034FF04F
:1003E000030101FA03F36FEA03031A407B68DA6042
:1003F0007B68DA683B68DB7919467B694FEA43031F
:1004000001FA03F31A437B68DA607B6903F10103A5
:100410007B617B690F2B7FF675AF07F11C07BD462B
:1004200080BC704780B483B000AF786013460A4642
:100430007A807B707B78002B03D07B687A881A8364
:1004400002E07B687A885A8307F10C07BD4680BCBE
:10045000704700BF80B487B000AF4FF000033B612E
:100460004FF000037B614FF00203FB604FF000038D
:10047000BB604FF002037B604FF46053C4F2020391
:100480009B6803F00C033B613B69042B0DD0082BE8
:1004900015D0002B69D140F20003C2F200034FF4E3
:1004A0001052C0F2F4021A6069E040F20003C2F296
:1004B000000347F64002C0F27D121A605FE04FF47D
:1004C0006053C4F202035B6803F480034FEA935362
:1004D000BB604FF46053C4F202035B6803F03F0358
:1004E0007B60BB68002B14D047F64003C0F27D133D
:1004F0007A68B3FBF2F24FF46053C4F20203596816
:1005000047F6C0730B404FEA931303FB02F37B6182
:1005100013E04FF41053C0F2F4037A68B3FBF2F225
:100520004FF46053C4F20203596847F6C0730B409E
:100530004FEA931303FB02F37B614FF46053C4F261
:1005400002035B6803F440334FEA134303F10103F2
:100550004FEA4303FB607A69FB68B2FBF3F240F2B7
:100560000003C2F200031A6009E040F20003C2F285
:1005700000034FF41052C0F2F4021A6000BF4FF4AF
:100580006053C4F202039B6803F0F0034FEA1312B6
:1005900040F20403C2F200039B5CDBB23B6140F219
:1005A0000003C2F200031A683B6922FA03F240F228
:1005B0000003C2F200031A6007F11C07BD4680BCAD
:1005C000704700BF80B400AF4FF47053C4F2020311
:1005D0004FF47052C4F20202126842F002021A6032
:1005E0004FF46053C4F202034FF46052C4F20202AB
:1005F000126842F400221A604FF46053C4F20203FE
:100600004FF46052C4F2020292689A604FF4605351
:10061000C4F202034FF46052C4F2020292689A607C
:100620004FF46053C4F202034FF46052C4F202026A
:10063000926842F400429A604FF46053C4F202039D
:100640004FF46052C4F20202126842F480321A601F
:1006500000BF4FF46053C4F202031B6803F400337D
:10066000002BF6D04FF46053C4F202034FF46052F3
:10067000C4F20202516840F2BF120A405A604FF4BD
:100680006053C4F202034FF46052C4F20202526893
:1006900042F480025A604FF46053C4F202034FF4F4
:1006A0006052C4F20202526842F019025A604FF4DA
:1006B0006053C4F202034FF46052C4F20202526863
:1006C00042F428525A604FF46053C4F202034FF4CC
:1006D0006052C4F2020252685A604FF46053C4F28E
:1006E00002034FF46052C4F20202526842F0806288
:1006F0005A604FF46053C4F202034FF46052C4F2E4
:100700000202126842F080721A6000BF4FF4605318
:10071000C4F202031B6803F00073002BF6D04FF401
:100720006053C4F202034FF46052C4F202029268B2
:1007300042F002029A6000BF4FF46053C4F2020319
:100740009B6803F00803002BF6D0BD4680BC7047C1
:10075000007A030A00000000000000000102030408
:040760000607080977
:0400000508000000EF
:00000001FF
