:020000040800F2
:100000001808002089010008E5010008E501000842
:10001000E5010008E5010008E50100080000000016
:10002000000000000000000000000000E5010008E2
:10003000E501000800000000E5010008E5010008F6
:10004000E5010008E5010008E5010008E5010008F8
:10005000E5010008E5010008E5010008E5010008E8
:10006000E5010008E5010008E5010008E5010008D8
:10007000E5010008E5010008E5010008E5010008C8
:10008000E5010008E5010008E5010008E5010008B8
:10009000E5010008E5010008E5010008E5010008A8
:1000A000E5010008E5010008E5010008E501000898
:1000B000E5010008E5010008E5010008E501000888
:1000C000E5010008E5010008E5010008E501000878
:1000D000E5010008E5010008E5010008E501000868
:1000E000E5010008E5010008E5010008E501000858
:1000F000E5010008E5010008E5010008E501000848
:10010000E5010008E5010008E5010008E501000837
:10011000E5010008E5010008E5010008E501000827
:10012000E5010008E5010008E5010008E501000817
:10013000E5010008E5010008E5010008E501000807
:10014000E5010008E5010008E5010008E5010008F7
:10015000E5010008E5010008E5010008E5010008E7
:10016000E5010008E5010008E5010008E5010008D7
:10017000E5010008E5010008E5010008E5010008C7
:10018000E5010008E501000880B582B000AF104B22
:100190007B60104B3B6007E07A68131D7B603B6817
:1001A000191D396012681A603B680B4A9342F3D3F9
:1001B0000A480B494FF000028842B8BF40F8042BB0
:1001C000FADB00F012F800BF0837BD4680BD00BF63
:1001D000C4030008000000201400002014000020C8
:1001E0001400002080B400AFFEE780B500AF00F03F
:1001F00083F800F001F8FEE780B487B000AF002379
:100200003B6100237B610223FB600023BB60022370
:100210007B60344B9B6803F00C033B613B69082B0C
:1002200011D03B69082B44D83B69002B03D03B69B4
:10023000042B04D03DE02C4B2C4A1A603DE02A4BA5
:100240002B4A1A6039E0274B5B689B0D03F00103D2
:10025000BB60244B5B6803F03F037B60BB68002BF3
:100260000CD0234A7B68B2FBF3F31E4A5268920912
:10027000C2F3080202FB03F37B610BE01B4A7B68BD
:10028000B2FBF3F3174A52689209C2F3080202FB69
:1002900003F37B61134B5B681B0C03F00303013317
:1002A0005B00FB607A69FB68B2FBF3F30E4A1360F4
:1002B00003E00D4B0D4A1A6000BF0A4B9B681B09F7
:1002C00003F00F030B4AD35CDBB23B61064B1A68A9
:1002D0003B6922FA03F3044A136000BF1C37BD4692
:1002E00080BC704700380240000000200024F40069
:1002F00040787D010400002080B400AF2D4B1B68C6
:100300002C4A43F0020313602B4B2B4A9B689360EB
:10031000294B294A9B689360274B9B68264A43F4E4
:1003200000439360244B1B68234A43F480331360DB
:1003300000BF214B1B6803F40033002BF9D01E4B88
:100340001B6C1D4A43F0805313641C4B1B681B4AF3
:1003500043F480431360184B5B68174A43F019035A
:100360005360154B5A681449154B13434B60124B9D
:10037000114A5B685360104B1B680F4A43F080734F
:10038000136000BF0C4B1B6803F00073002BF9D007
:10039000094B9B68084A43F00203936000BF064B79
:1003A0009B6803F00803002BF9D000BF00BFBD46D7
:1003B00080BC7047003C02400038024000700040A2
:0403C0000042882649
:1003C400007A030A00000000000000000102030498
:0403D4000607080907
:0400000508000000EF
:00000001FF
